:020000040800F2
:100000000080012035260008890900088F090008B2
:10001000950900089B090008A109000800000000DC
:10002000000000000000000000000000A709000818
:10003000B509000800000000C3090008D109000844
:1000400085260008852600088526000885260008E4
:1000500085260008852600088526000885260008D4
:1000600085260008852600088526000885260008C4
:1000700085260008852600088526000885260008B4
:100080008526000885260008852600080000000057
:1000900000000000000000000000000085260008AD
:1000A0008526000885260008852600088526000884
:1000B0008526000885260008852600088526000874
:1000C0008526000885260008852600088526000864
:1000D00085260008DD090008F1090008000000007D
:1000E000050A000885260008852600080000000093
:1000F000000000000000000000000000852600084D
:1001000000000000852600088526000885260008D6
:1001100000000000000000000000000000000000DF
:100120008526000885260008852600088526000803
:10013000852600080000000000000000000000000C
:1001400000000000000000000000000085260008FC
:1001500085260008852600088526000885260008D3
:100160008526000885260008000000000000000029
:10017000000000000000000000000000000000007F
:1001800000000000852600080000000000000000BC
:0401900085260008B8
:1001940010B5054C237833B9044B13B10448AFF3BD
:1001A40000800123237010BD0C000020000000001B
:1001B400E026000808B5034B1BB103490348AFF31D
:1001C400008008BD0000000010000020E0260008A8
:1001D40053B94AB9002908BF00281CBF4FF0FF31AA
:1001E4004FF0FF3000F07AB9ADF1080C6DE904CEA0
:1001F40000F006F8DDF804E0DDE9022304B07047FE
:100204002DE9F0478C460D460446089E002B51D13B
:100214008A4217466DD9B2FA82FEBEF1000F0BD0A6
:10022400CEF1200C01FA0EF520FA0CFC02FA0EF7BE
:100234004CEA050C00FA0EF44FEA174A250CBCFBF5
:10024400FAF81FFA87F90AFB18CC45EA0C4508FBB3
:1002540009F3AB420AD9ED1908F1FF3280F023818A
:10026400AB4240F22081A8F102083D44ED1AA4B249
:10027400B5FBFAF00AFB105544EA054400FB09F902
:10028400A14509D9E41900F1FF3380F00A81A145A1
:1002940040F2078102383C44A4EB090440EA0840D8
:1002A4000021002E61D024FA0EF400233460736020
:1002B400BDE8F0878B4207D9002E54D0002186E890
:1002C40021000846BDE8F087B3FA83F1002940F025
:1002D4008E80AB4202D3824200F2FA80841A65EB2C
:1002E40003050120AC46002E3FD086E81010BDE87F
:1002F400F08712B90127B7FBF2F7B7FA87FEBEF110
:10030400000F34D1EB1B3A0C1FFA87FC0121B3FB1D
:10031400F2F8250C02FB183345EA03450CFB08F3FD
:10032400AB4207D9ED1908F1FF3002D2AB4200F21B
:10033400D1808046ED1AA3B2B5FBF2F002FB105552
:1003440043EA05440CFB00FCA44507D9E41900F179
:10035400FF3302D2A44500F2B8801846A4EB0C0483
:1003640040EA08409DE731463046BDE8F087CEF1CB
:10037400200405FA0EF307FA0EF720FA04F83A0CF3
:1003840025FA04F448EA0308B4FBF2F14FEA1845ED
:1003940002FB11441FFA87FC45EA044501FB0CF3F8
:1003A400AB4200FA0EF409D9ED1901F1FF3080F0E7
:1003B4008A80AB4240F2878002393D44EB1A1FFA2F
:1003C40088F5B3FBF2F002FB103345EA034500FB6A
:1003D4000CF3AB4207D9ED1900F1FF386FD2AB42F1
:1003E4006DD902383D44EB1A40EA01418FE7C1F16F
:1003F400200722FA07F88B4005FA01F448EA0303C0
:1004040020FA07FE4FEA134CFD404EEA040EB5FBFA
:10041400FCF94FEA1E440CFB19551FFA83F844EA11
:10042400054509FB08F4AC4202FA01F200FA01FAAC
:1004340008D9ED1809F1FF3043D2AC4241D9A9F1F2
:1004440002091D442D1B1FFA8EFEB5FBFCF00CFBAC
:1004540010554EEA054400FB08F8A04507D9E418F6
:1004640000F1FF3529D2A04527D902381C4440EABF
:100474000940A4EB0804A0FB02894C45C6464D463E
:1004840015D312D056B1BAEB0E0364EB050404FA8B
:1004940007F7CB401F43CC40376074600021BDE8B0
:1004A400F0871846F8E69046E0E6C245EAD2B8EB93
:1004B400020E69EB03050138E4E72846D7E7404616
:1004C40091E78146BEE7014678E702383C4445E7B8
:1004D400084608E7A8F102083D442BE7704700BF2F
:1004E40080B59AB000AF334B00221A7000F0A2FA24
:1004F40000F06CF800F01EF900F0C8F800F0F0F815
:100504003B1D64220021184602F0E0F82A4A3B1DF4
:1005140092E8030083E803000023BB81274A07F124
:100524000E03106818609188927999809A7107F186
:10053400150300221A809A70214A07F1180392E8E1
:10054400030018600433198002330A0C1A7007F18F
:100554001F0300221A809A701A4B07F1220203CB60
:10056400106051601B881381391D64230A221648C8
:1005740001F0BDFA3B1D03F10A0164230A2212486B
:1005840001F0B5FA3B1D591C642305220E4801F005
:10059400AEFA084B1B78DBB2012BFAD13B1D03F1F9
:1005A400140164230A22084801F0A1FA014B002235
:1005B4001A70EEE728000020F82600080427000837
:1005C400102700081C2700087000002080B594B094
:1005D40000AF07F1200330220021184602F076F81C
:1005E40007F10C0300221A605A609A60DA601A61FB
:1005F4000023BB60234A234B1B6C43F080531364DA
:10060400204B1B6C03F08053BB60BB6800237B60F2
:100614001D4A1D4B1B6823F4404343F400431360FD
:10062400194B1B6803F440437B607B6802233B62E5
:100634000123FB6210233B630023BB6307F1200308
:10064400184600F0BFFD0346002B01D000F0E2F88D
:100654000F23FB6000233B6100237B610023BB610C
:100664000023FB6107F10C030021184601F022F876
:100674000346002B01D000F0CDF800BF5037BD4633
:1006840080BD00BF003802400070004080B500AF5C
:10069400114B124A1A60104B4FF416525A600E4B0B
:1006A40000229A600C4B0022DA600B4B00221A6184
:1006B400094B0C225A61084B00229A61064B002216
:1006C400DA61054801F0C6F90346002B01D000F0B9
:1006D400A1F800BF80BD00BF2C0000200010014025
:1006E40080B500AF114B124A1A60104B4FF41652EA
:1006F4005A600E4B00229A600C4B0022DA600B4BBE
:1007040000221A61094B0C225A61084B00229A619B
:10071400064B0022DA61054801F09CF90346002BE0
:1007240001D000F077F800BF80BD00BF700000204A
:100734000044004080B588B000AF07F10C030022EC
:100744001A605A609A60DA601A610023BB60234A17
:10075400224B1B6B43F004031363204B1B6B03F00E
:100764000403BB60BB6800237B601C4A1B4B1B6BF0
:1007740043F001031363194B1B6B03F001037B600C
:100784007B6801222021164800F0EAFC4FF4005354
:10079400FB60144B3B6100237B6107F10C0319469A
:1007A400114800F05BFB2023FB6001233B61002325
:1007B4007B610023BB6107F10C031946084800F074
:1007C4004DFB00220121282000F07FFA282000F0B0
:1007D40098FA00BF2037BD4680BD00BF00380240F4
:1007E40000000240000021100008024080B483B0E1
:1007F40000AF0346FB80FB88B3F5005F02D1044BD6
:1008040001221A7000BF0C37BD465DF8047B7047A7
:100814002800002080B400AF72B6FEE780B483B035
:1008240000AF00237B60104A0F4B5B6C43F48043A2
:1008340053640D4B5B6C03F480437B607B68002343
:100844003B60094A084B1B6C43F080531364064B0E
:100854001B6C03F080533B603B6800BF0C37BD4604
:100864005DF8047B704700BF0038024080B58CB04F
:1008740000AF786007F11C0300221A605A609A6086
:10088400DA601A617B681B683A4A934235D10023C7
:10089400BB61394A384B5B6C43F010035364364BED
:1008A4005B6C03F01003BB61BB6900237B61324ABC
:1008B400314B1B6B43F0010313632F4B1B6B03F092
:1008C40001037B617B694FF4C063FB6102233B62DC
:1008D40000237B620323BB620723FB6207F11C0333
:1008E4001946264800F0BAFA00220121252000F01A
:1008F400ECF9252000F005FA38E07B681B68204AF3
:10090400934233D100233B611B4A1B4B1B6C43F4C2
:1009140000331364184B1B6C03F400333B613B69D5
:100924000023FB60144A144B1B6B43F00103136355
:10093400114B1B6B03F00103FB60FB680C23FB6191
:1009440002233B6200237B620323BB620723FB6217
:1009540007F11C031946094800F080FA002201211E
:10096400262000F0B2F9262000F0CBF900BF303782
:10097400BD4680BD00100140003802400000024026
:100984000044004080B400AFFEE780B400AFFEE74F
:1009940080B400AFFEE780B400AFFEE780B400AFE0
:1009A400FEE780B400AF00BFBD465DF8047B70472E
:1009B40080B400AF00BFBD465DF8047B704780B4CF
:1009C40000AF00BFBD465DF8047B704780B500AF43
:1009D40000F082F800BF80BD80B500AF024801F08E
:1009E40017F900BF80BD00BF2C00002080B500AF08
:1009F400024801F00DF900BF80BD00BF7000002067
:100A040080B500AF4FF4005000F0C4FB00BF80BDC0
:100A140080B400AF064A064BD3F8883043F4700321
:100A2400C2F8883000BFBD465DF8047B704700BF44
:100A340000ED00E080B500AF0E4A0E4B1B6843F496
:100A4400007313600B4A0B4B1B6843F48063136001
:100A5400084A084B1B6843F480731360032000F0BA
:100A640029F9002000F008F8FFF7D8FE0023184603
:100A740080BD00BF003C024080B582B000AF78600A
:100A8400124B1A68124B1B7819464FF47A73B3FB56
:100A9400F1F3B2FBF3F3184600F041F90346002BDF
:100AA40001D001230EE07B680F2B0AD8002279685D
:100AB4004FF0FF3000F009F9064A7B681360002309
:100AC40000E0012318460837BD4680BD0000002021
:100AD400080000200400002080B400AF064B1B78FF
:100AE4001A46064B1B681344044A136000BFBD46F4
:100AF4005DF8047B704700BF08000020B4000020AC
:100B040080B400AF034B1B681846BD465DF8047BF8
:100B1400704700BFB400002080B485B000AF786097
:100B24007B6803F00703FB600C4BDB68BB60BA68AF
:100B34004FF6FF031340BB60FB681A02BB68134304
:100B440043F0BF6343F40033BB60044ABB68D36023
:100B540000BF1437BD465DF8047B704700ED00E02C
:100B640080B400AF044BDB681B0A03F0070318468C
:100B7400BD465DF8047B704700ED00E080B483B0AF
:100B840000AF0346FB7197F90730002B0BDB0949D3
:100B940097F907305B09FA7902F01F02012000FA85
:100BA40002F241F8232000BF0C37BD465DF8047BF8
:100BB400704700BF00E100E080B483B000AF03469B
:100BC4003960FB7197F90730002B0ADB0D4997F95F
:100BD40007303A68D2B21201D2B20B4483F8002330
:100BE4000AE00949FB7903F00F03043B3A68D2B2E7
:100BF4001201D2B20B441A7600BF0C37BD465DF821
:100C0400047B704700E100E000ED00E080B489B0AF
:100C140000AFF860B9607A60FB6803F00703FB611A
:100C2400FB69C3F10703042B28BF0423BB61FB69E1
:100C34000433062B02D9FB69033B00E000237B61EC
:100C44000122BB6902FA03F35A1EBB681A407B698E
:100C54009A4001217B6901FA03F3591E7B680B401A
:100C6400134318462437BD465DF8047B70470000E3
:100C740080B582B000AF78607B68013BB3F1807FC0
:100C840001D301230FE00A4A7B68013B53600F2123
:100C94004FF0FF30FFF790FF054B00229A60044BA2
:100CA40007221A60002318460837BD4680BD00BFDE
:100CB40010E000E080B582B000AF78607868FFF79C
:100CC4002BFF00BF0837BD4680BD80B586B000AF9E
:100CD4000346B9607A60FB7300237B61FFF740FF32
:100CE40078617A68B9687869FFF790FF024697F9E6
:100CF4000F3011461846FFF75FFF00BF1837BD4697
:100D040080BD80B582B000AF0346FB7197F9073010
:100D14001846FFF733FF00BF0837BD4680BD80B5D6
:100D240082B000AF78607868FFF7A2FF03461846E8
:100D34000837BD4680BD80B584B000AF78607B685D
:100D44009B6DFB60FFF7DCFEB8607B6893F8353081
:100D5400DBB2022B08D07B6880225A657B680022B4
:100D640083F83420012352E07B681B687A68126898
:100D7400126822F016021A607B681B687A6812688F
:100D8400526922F080025A617B681B6C002B03D1EC
:100D94007B689B6C002B07D07B681B687A681268A1
:100DA400126822F008021A607B681B687A6812686D
:100DB400126822F001021A6013E0FFF7A1FE024656
:100DC400BB68D31A052B0CD97B6820225A657B6833
:100DD400002283F834207B68032283F83520032320
:100DE40015E07B681B681B6803F00103002BE4D14A
:100DF4007B68DB6D3F229A40FB689A607B68002227
:100E040083F834207B68012283F8352000231846B8
:100E14001037BD4680BD80B483B000AF78607B6876
:100E240093F83530DBB2022B04D07B6880225A65FC
:100E340001230CE07B68052283F835207B681B685E
:100E44007A681268126822F001021A6000231846B8
:100E54000C37BD465DF8047B7047000080B489B050
:100E640000AF7860396000237B6100233B6100237D
:100E7400BB610023FB6159E10122FB6902FA03F320
:100E84007B613B681A687B6913403B613A697B6903
:100E94009A4240F048813B685B6803F00303012BEE
:100EA40005D03B685B6803F00303022B30D17B68F9
:100EB4009B68BB61FB695B00032202FA03F3DB431B
:100EC400BA691340BB613B68DA68FB695B0002FAEC
:100ED40003F3BA691343BB617B68BA699A607B68A0
:100EE4005B68BB610122FB6902FA03F3DB43BA6965
:100EF4001340BB613B685B681B0903F00102FB699B
:100F040002FA03F3BA691343BB617B68BA695A6096
:100F14003B685B6803F00303032B17D07B68DB6833
:100F2400BB61FB695B00032202FA03F3DB43BA698A
:100F34001340BB613B689A68FB695B0002FA03F3E8
:100F4400BA691343BB617B68BA69DA603B685B6862
:100F540003F00303022B23D1FB69DA087B68083210
:100F640053F82230BB61FB6903F007039B000F2297
:100F740002FA03F3DB43BA691340BB613B681A69A5
:100F8400FB6903F007039B0002FA03F3BA691343F6
:100F9400BB61FB69DA087B680832B96943F822103F
:100FA4007B681B68BB61FB695B00032202FA03F3E5
:100FB400DB43BA691340BB613B685B6803F003021F
:100FC400FB695B0002FA03F3BA691343BB617B68F4
:100FD400BA691A603B685B6803F08053002B00F029
:100FE400A2800023FB60564A554B5B6C43F480435C
:100FF4005364534B5B6C03F48043FB60FB68514ABE
:10100400FB699B08023352F82330BB61FB6903F090
:1010140003039B000F2202FA03F3DB43BA69134074
:10102400BB617B68484A934219D07B68474A934224
:1010340013D07B68464A93420DD07B68454A93425D
:1010440007D07B68444A934201D1042308E0072374
:1010540006E0032304E0022302E0012300E000236E
:10106400FA6902F0030292009340BA691343BB6128
:101074003449FB699B080233BA6941F82320374B92
:101084001B68BB613B69DB43BA691340BB613B68C6
:101094005B6803F48033002B03D0BA693B691343C4
:1010A400BB612E4ABB6913602C4B5B68BB613B6917
:1010B400DB43BA691340BB613B685B6803F40033EC
:1010C400002B03D0BA693B691343BB61234ABB6954
:1010D4005360224B9B68BB613B69DB43BA69134095
:1010E400BB613B685B6803F48013002B03D0BA69CF
:1010F4003B691343BB61194ABB699360174BDB68B7
:10110400BB613B69DB43BA691340BB613B685B6805
:1011140003F40013002B03D0BA693B691343BB618A
:101124000E4ABB69D360FB690133FB61FB690F2B7A
:101134007FF6A2AE00BF2437BD465DF8047B70473E
:101144000038024000380140000002400004024020
:1011540000080240000C024000100240003C014024
:1011640080B483B000AF78600B467B8013467B70FD
:101174007B78002B03D07A887B689A6103E07B88B4
:101184001A047B689A6100BF0C37BD465DF8047B86
:101194007047000080B582B000AF0346FB80084B67
:1011A4005A69FB881340002B06D0054AFB8853611B
:1011B400FB881846FFF71AFB00BF0837BD4680BD01
:1011C400003C014080B586B000AF78607B68002B9E
:1011D40001D1012364E27B681B6803F00103002B47
:1011E40075D0A34B9B6803F00C03042B0CD0A04BCD
:1011F4009B6803F00C03082B12D19D4B5B6803F42E
:101204008003B3F5800F0BD1994B1B6803F40033B3
:10121400002B5BD07B685B68002B57D101233FE236
:101224007B685B68B3F5803F06D1914A904B1B689D
:1012340043F4803313601DE07B685B68B3F5A02F33
:101244000CD18B4A8A4B1B6843F480231360884A71
:10125400874B1B6843F4803313600BE0844A844B50
:101264001B6823F480331360814A814B1B6823F489
:10127400802313607B685B68002B13D0FFF740FC6E
:10128400386108E0FFF73CFC02463B69D31A642B43
:1012940001D9032304E2764B1B6803F40033002BCB
:1012A400F0D014E0FFF72CFC386108E0FFF728FCCD
:1012B40002463B69D31A642B01D90323F0E16C4B3A
:1012C4001B6803F40033002BF0D100E000BF7B68FF
:1012D4001B6803F00203002B63D0654B9B6803F08B
:1012E4000C03002B0BD0624B9B6803F00C03082B00
:1012F4001CD15F4B5B6803F48003002B16D15C4B5D
:101304001B6803F00203002B05D07B68DB68012B0C
:1013140001D00123C4E15649554B1B6823F0F80260
:101324007B681B69DB0013430B603AE07B68DB6876
:10133400002B20D04F4B01221A60FFF7E1FB3861EC
:1013440008E0FFF7DDFB02463B69D31A022B01D903
:101354000323A5E1464B1B6803F00203002BF0D0E6
:101364004349434B1B6823F0F8027B681B69DB008D
:1013740013430B6015E03F4B00221A60FFF7C0FBDC
:10138400386108E0FFF7BCFB02463B69D31A022B25
:1013940001D9032384E1364B1B6803F00203002BBD
:1013A400F0D17B681B6803F00803002B30D07B6806
:1013B4005B69002B16D0304B01221A60FFF7A0FBAB
:1013C400386108E0FFF79CFB02463B69D31A022B05
:1013D40001D9032364E1264B5B6F03F00203002B66
:1013E400F0D015E0244B00221A60FFF789FB386126
:1013F40008E0FFF785FB02463B69D31A022B01D9AB
:1014040003234DE11A4B5B6F03F00203002BF0D171
:101414007B681B6803F00403002B00F0A08000230A
:10142400FB75134B1B6C03F08053002B0FD100236F
:10143400BB600F4A0E4B1B6C43F0805313640C4B80
:101444001B6C03F08053BB60BB680123FB750B4B23
:101454001B6803F48073002B21D1084A074B1B68D7
:1014640043F480731360FFF74BFB386111E000BF56
:101474000038024000004742800E4742007000409E
:10148400FFF73EFB02463B69D31A022B01D9032323
:1014940006E1854B1B6803F48073002BF0D07B6856
:1014A4009B68012B06D1814A804B1B6F43F00103DB
:1014B40013671CE07B689B68052B0CD17B4A7B4B34
:1014C4001B6F43F004031367784A784B1B6F43F098
:1014D400010313670BE0754A744B1B6F23F0010380
:1014E4001367724A714B1B6F23F0040313677B6805
:1014F4009B68002B15D0FFF703FB38610AE0FFF768
:10150400FFFA02463B69D31A41F28832934201D969
:101514000323C5E0654B1B6F03F00203002BEED0E1
:1015240014E0FFF7EDFA38610AE0FFF7E9FA024642
:101534003B69D31A41F28832934201D90323AFE0C5
:101544005A4B1B6F03F00203002BEED1FB7D012BE2
:1015540005D1564A554B1B6C23F0805313647B68AA
:101564009B69002B00F09B80504B9B6803F00C039D
:10157400082B5CD07B689B69022B41D14C4B002229
:101584001A60FFF7BDFA386108E0FFF7B9FA0246BE
:101594003B69D31A022B01D9032381E0434B1B6817
:1015A40003F00073002BF0D140497B68DA697B6853
:1015B4001B6A1A437B685B6A9B011A437B689B6ABC
:1015C4005B08013B1B041A437B68DB6A1B0613435D
:1015D4004B60374B01221A60FFF792FA386108E03A
:1015E400FFF78EFA02463B69D31A022B01D9032373
:1015F40056E02E4B1B6803F00073002BF0D04EE036
:101604002B4B00221A60FFF77BFA386108E0FFF7E2
:1016140077FA02463B69D31A022B01D903233FE030
:10162400224B1B6803F00073002BF0D137E07B687A
:101634009B69012B01D1012332E01C4B5B68FB60E9
:101644007B689B69012B28D0FB6803F480027B68CC
:10165400DB699A4221D1FB6803F03F027B681B6A75
:101664009A421AD1FA6847F6C07313407A68526AEC
:101674009201934211D1FB6803F440327B689B6A68
:101684005B08013B1B049A4207D1FB6803F07062BC
:101694007B68DB6A1B069A4201D0012300E0002329
:1016A40018461837BD4680BD00700040003802401F
:1016B4006000474280B584B000AF786039607B68D1
:1016C400002B01D10123CCE0684B1B6803F0070217
:1016D4003B689A420CD2654B3A68D2B21A70634B9B
:1016E4001B6803F007023B689A4201D00123B8E06B
:1016F4007B681B6803F00203002B20D07B681B6807
:1017040003F00403002B05D0594A594B9B6843F45A
:10171400E05393607B681B6803F00803002B05D03B
:10172400534A534B9B6843F4604393605049504B76
:101734009B6823F0F0027B689B6813438B607B6893
:101744001B6803F00103002B44D07B685B68012B0A
:1017540007D1474B1B6803F40033002B19D1012335
:101764007FE07B685B68022B03D07B685B68032B9C
:1017740007D13F4B1B6803F00073002B09D10123F1
:101784006FE03B4B1B6803F00203002B01D10123E4
:1017940067E03749364B9B6823F003027B685B683C
:1017A40013438B60FFF7ACF9F8600AE0FFF7A8F980
:1017B4000246FB68D31A41F28832934201D90323CB
:1017C4004FE02B4B9B6803F00C027B685B689B002B
:1017D4009A42EBD1254B1B6803F007023B689A42FF
:1017E4000CD9224B3A68D2B21A70204B1B6803F012
:1017F40007023B689A4201D0012332E07B681B68F0
:1018040003F00403002B08D01949194B9B6823F4F7
:10181400E0527B68DB6813438B607B681B6803F0D2
:101824000803002B09D01249114B9B6823F4604232
:101834007B681B69DB0013438B6000F021F80146D1
:101844000B4B9B681B0903F00F030A4AD35C21FA74
:1018540003F3094A1360094B1B681846FFF70CF998
:10186400002318461037BD4680BD00BF003C02402F
:10187400003802402827000800000020040000204F
:101884002DE9F04F87B000AF0022FA6000227A61A0
:101894000022BA6000223A61514A926802F00C02B6
:1018A400042A07D0082A08D0002A40F090804D4B23
:1018B4003B618FE04C4B3B618CE0494A526802F03B
:1018C4003F02FA60464A526802F48002002A23D09A
:1018D400434B5B689B094FF0000440F2FF114FF04B
:1018E400000203EA010304EA02043F4A02FB04F192
:1018F400002202FB03F20A443B49A3FB01015318F3
:101904001946FB684FF000041A462346FEF760FCB4
:1019140003460C467B614CE0314A526892091146F9
:101924004FF0000240F2FF154FF0000605EA0105F2
:1019340006EA0206294632464FEA421B4BEAD16BBD
:101944004FEA411A51465A46AA46B34655465E46A0
:101954004D1B62EB060629463246940144EA916423
:101964008B015B1A64EB02044FEAC40949EA537918
:101974004FEAC30843464C4655465E46ED1846EBCF
:1019840004062B463446A2027A607A6842EA9352ED
:101994007A609B023B6097E8180018462146FB6872
:1019A4004FF000041A462346FEF712FC03460C4689
:1019B4007B610B4B5B681B0C03F0030301335B007F
:1019C400BB607A69BB68B2FBF3F33B6102E0054B91
:1019D4003B6100BF3B6918461C37BD46BDE8F08F2C
:1019E400003802400024F40040787D0180B400AF48
:1019F400034B1B681846BD465DF8047B704700BF67
:101A04000000002080B500AFFFF7F0FF0146054B52
:101A14009B689B0A03F00703034AD35C21FA03F390
:101A2400184680BD003802403827000880B500AF52
:101A3400FFF7DCFF0146054B9B685B0B03F00703D4
:101A4400034AD35C21FA03F3184680BD00380240F0
:101A54003827000880B582B000AF78607B68002B1F
:101A640001D101233FE07B6893F83D30DBB2002BCA
:101A740006D17B68002283F83C207868FEF7F6FEE6
:101A84007B68242283F83D207B681B687A6812688F
:101A9400D26822F40052DA60786800F019FC7B689E
:101AA4001B687A681268126922F490421A617B6892
:101AB4001B687A681268526922F02A025A617B68AC
:101AC4001B687A681268D26842F40052DA607B6854
:101AD40000221A647B68202283F83D207B68202240
:101AE40083F83E20002318460837BD4680BD80B5E4
:101AF4008AB002AFF860B9603B601346FB800023F4
:101B04007B61FB6893F83D30DBB2202B7BD1BB6853
:101B1400002B02D0FB88002B01D1012374E0FB6869
:101B240093F83C30012B01D102236DE0FB680122C4
:101B340083F83C20FB6800221A64FB68212283F8A6
:101B44003D20FEF7DDFF7861FB68FA889A84FB6824
:101B5400FA88DA84FB689B68B3F5805F08D1FB6878
:101B64001B69002B04D10023FB61BB68BB6103E04C
:101B7400BB68FB610023BB61FB68002283F83C2047
:101B840029E03B6800937B6900228021F86800F01B
:101B940015FA0346002B01D0032335E0FB69002B23
:101BA4000AD1FB681B68BA691288C2F308025A603A
:101BB400BB690233BB6107E0FB681B68FA691278F2
:101BC4005A60FB690133FB61FB68DB8C9BB2013B10
:101BD4009AB2FB68DA84FB68DB8C9BB2002BD0D111
:101BE4003B6800937B6900224021F86800F0E6F925
:101BF4000346002B01D0032306E0FB68202283F870
:101C04003D20002300E0022318462037BD4680BD56
:101C140080B58AB000AF78607B681B681B687B6204
:101C24007B681B68DB683B627B681B685B69FB61E4
:101C34000023BB6100237B617B6A03F00F03BB615C
:101C4400BB69002B0DD17B6A03F02003002B08D065
:101C54003B6A03F02003002B03D0786800F0A0FA5D
:101C64007DE1BB69002B00F0B180FB6903F0010347
:101C7400002B05D13B6A03F49073002B00F0A6807F
:101C84007B6A03F00103002B0AD03B6A03F48073E0
:101C9400002B05D07B681B6C43F001027B681A643F
:101CA4007B6A03F00403002B0AD0FB6903F00103F1
:101CB400002B05D07B681B6C43F002027B681A641E
:101CC4007B6A03F00203002B0AD0FB6903F00103D3
:101CD400002B05D07B681B6C43F004027B681A64FC
:101CE4007B6A03F00803002B0FD03B6A03F0200348
:101CF400002B04D1FB6903F00103002B05D07B68A2
:101D04001B6C43F008027B681A647B681B6C002B15
:101D140000F020817B6A03F02003002B07D03B6A8C
:101D240003F02003002B02D0786800F039FA7B68B6
:101D34001B685B6903F04003402B0CBF01230023A5
:101D4400DBB27B617B681B6C03F00803002B02D1C0
:101D54007B69002B31D0786800F07AF97B681B68C6
:101D64005B6903F04003402B23D17B681B687A68CE
:101D74001268526922F040025A617B689B6B002B07
:101D840013D07B689B6B774A1A657B689B6B1846FC
:101D9400FFF741F80346002B16D07B689B6B1B6D45
:101DA4007A68926B104698470EE0786800F0F0F875
:101DB4000AE0786800F0ECF806E0786800F0E8F8EB
:101DC4007B6800221A64C5E000BFC3E07B681B6B1C
:101DD400012B40F0A2807B6A03F01003002B00F07B
:101DE4009C803B6A03F01003002B00F096800023D4
:101DF400FB607B681B681B68FB607B681B685B6817
:101E0400FB60FB687B681B685B6903F04003402B45
:101E14004FD17B689B6B1B685B687B827B8A002B42
:101E240000F09A807B689B8D7A8A9A4280F0948035
:101E34007B687A8ADA857B689B6BDB69B3F5807F84
:101E44002BD07B681B687A681268D26822F480728F
:101E5400DA607B681B687A681268526922F00102B2
:101E64005A617B681B687A681268526922F04002E2
:101E74005A617B68202283F83E207B6800221A6323
:101E84007B681B687A681268D26822F01002DA60F4
:101E94007B689B6B1846FEF74EFF7B689A8D7B68C8
:101EA400DB8D9BB2D31A9BB21946786800F07AF89E
:101EB40052E07B689A8D7B68DB8D9BB2D31A3B82A0
:101EC4007B68DB8D9BB2002B48D03B8A002B45D02E
:101ED4007B681B687A681268D26822F49072DA60B0
:101EE4007B681B687A681268526922F001025A61A1
:101EF4007B68202283F83E207B6800221A637B687B
:101F04001B687A681268D26822F01002DA603B8A91
:101F14001946786800F046F820E07B6A03F08003F5
:101F2400002B08D03B6A03F08003002B03D07868B1
:101F340000F0CFF813E07B6A03F04003002B0ED0CF
:101F44003B6A03F04003002B09D0786800F010F9D5
:101F540000BF04E000BF02E000BF00E000BF28377C
:101F6400BD4680BDAF20000880B483B000AF786068
:101F740000BF0C37BD465DF8047B704780B483B066
:101F840000AF786000BF0C37BD465DF8047B704736
:101F940080B483B000AF786000BF0C37BD465DF8F5
:101FA400047B704780B483B000AF78600B467B80BD
:101FB40000BF0C37BD465DF8047B704780B584B024
:101FC40000AFF860B9603B601346FB712CE0BB695D
:101FD400B3F1FF3F28D0BB69002B07D0FEF790FD7B
:101FE40002463B68D21ABB699A421DD9FB681B683A
:101FF400FA681268D26822F4D072DA60FB681B684F
:10200400FA681268526922F001025A61FB682022C0
:1020140083F83D20FB68202283F83E20FB680022E1
:1020240083F83C2003230FE0FB681B681A68BB6835
:102034001A40BB689A420CBF01230023DBB21A4644
:10204400FB799A42C3D0002318461037BD4680BDA1
:1020540080B483B000AF78607B681B687A681268CC
:10206400D26822F49072DA607B681B687A6812681E
:10207400526922F001025A617B681B6B012B07D164
:102084007B681B687A681268D26822F01002DA60F2
:102094007B68202283F83E207B6800221A6300BFFD
:1020A4000C37BD465DF8047B704780B584B000AF43
:1020B40078607B689B6BFB60FB680022DA85FB68B9
:1020C4000022DA84F868FFF763FF00BF1037BD46CB
:1020D40080BD80B485B000AF78607B6893F83D30F4
:1020E400DBB2212B3DD17B689B68B3F5805F13D1B4
:1020F4007B681B69002B0FD17B681B6AFB607B68C4
:102104001B68FA681288C2F308025A607B681B6A6B
:102114009A1C7B681A6208E07B681A687B681B6AF1
:10212400581C796808621B7853607B68DB8C9BB20F
:10213400013B9BB27A681946D184002B0FD17B688E
:102144001B687A681268D26822F08002DA607B68C1
:102154001B687A681268D26842F04002DA60002391
:1021640000E0022318461437BD465DF8047B70472F
:1021740080B582B000AF78607B681B687A681268AB
:10218400D26822F04002DA607B68202283F83D2086
:102194007868FFF7E9FE002318460837BD4680BD7E
:1021A40080B584B000AF78607B6893F83E30DBB2D2
:1021B400222B40F087807B689B68B3F5805F17D142
:1021C4007B681B69002B13D10023FB607B689B6A2F
:1021D400BB607B681B685B689BB2C3F308039AB25D
:1021E400BB681A807B689B6A9A1C7B689A6226E0AB
:1021F4007B689B6AFB600023BB607B689B68B3F5CC
:10220400805F07D07B689B68002B0AD17B681B69C1
:10221400002B06D17B681B685B68DAB2FB681A7016
:1022240008E07B681B685B68DBB203F07F03DAB20B
:10223400FB681A707B689B6A5A1C7B689A627B688D
:10224400DB8D9BB2013B9BB27A681946D185002B8A
:1022540036D17B681B687A681268D26822F0200243
:10226400DA607B681B687A681268D26822F480722C
:10227400DA607B681B687A681268526922F001028E
:102284005A617B68202283F83E207B681B6B012BFC
:102294000ED17B681B687A681268D26822F010023B
:1022A400DA607B689B8D19467868FFF77BFE02E055
:1022B4007868FFF763FE7B6800221A63002302E05C
:1022C400002300E0022318461037BD4680BD0000FD
:1022D4002DE9F04F91B000AF78637B6B19687B6B8D
:1022E4001B681B6923F440527B6BDB6813430B614F
:1022F4007B6B9A687B6B1B691A437B6B5B691A4324
:102304007B6BDB691343BB637B6B19687B6B1B685B
:10231400DB6823F4164222F00C02BB6B1343CB6040
:102324007B6B19687B6B1B685B6923F440727B6B66
:102334009B6913434B617B6B1A68BA4B9A4204D076
:102344007B6B1A68B84B9A4203D1FFF76FFBF863B3
:1023540002E0FFF757FBF8637B6BDB69B3F5004FD3
:1023640040F0A7807B6B1A68BA62FB6B19464FF08A
:1023740000020B461446DB1844EB04045B1844EBE0
:102384000204E0007861786940EA53707861DB0008
:102394003B61D7E904345D1844EB02062846314614
:1023A4007B6B5B684FF00004DB1844EB04041A46B3
:1023B4002346FDF70DFF03460C461A469B4BA3FB31
:1023C40002235B091E01FB6B19464FF000020B460A
:1023D4001446DB1844EB04045B1844EB02044FEA94
:1023E400C40B4BEA537B4FEAC30A53465C4613EBD8
:1023F400010A44EB020B504659467B6B5B684FF075
:102404000004DB1844EB04041A462346FDF7E0FEFF
:1024140003460C461A46854BA3FB02135B09642151
:1024240001FB03F3D31ADB003233804AA2FB0323FC
:102434005B095B0003F4F8731E44FB6B19464FF011
:1024440000020B461446DB1844EB04045B1844EB0F
:1024540002044FEAC40949EA53794FEAC3084346E0
:102464004C4613EB010844EB0209404649467B6B9A
:102474005B684FF00004DB1844EB04041A4623465F
:10248400FDF7A6FE03460C461A46684BA3FB02134F
:102494005B09642101FB03F3D31ADB003233634A83
:1024A400A2FB03235B0903F007033344BA6A936076
:1024B400B3E07B6B1B683B61FB6B19464FF000027A
:1024C4000B461446DB1844EB04045B1844EB02048B
:1024D400E60046EA5376DD002B4634465D1844EBAD
:1024E4000206284631467B6B5B684FF00004A5006A
:1024F400FD62FD6A45EA9375FD629C00BC62D7E902
:102504000A23FDF765FE03460C461A46474BA3FB18
:1025140002135B091D01FB6B19464FF000020B46C9
:102524001446DB1844EB04045B1844EB0204E0009B
:10253400F860F86840EA5370F860D800B860D7E9EA
:10254400023413EB010844EB0209404649467B6B15
:102554005B684FF00004A6007E627E6A46EA9376CA
:102564007E629C003C62D7E90823FDF731FE0346F6
:102574000C461A462D4BA3FB02135B09642101FB95
:1025840003F3D31A1B013233284AA2FB03135B095A
:1025940003F0F0031D44FB6B19464FF000020B4699
:1025A4001446DB1844EB04045B1844EB0204E0001B
:1025B4007860786840EA53707860D800386097E8AB
:1025C400180013EB010844EB0209404649467B6BB3
:1025D4005B684FF00004A600FE61FE6946EA93764C
:1025E400FE619C00BC61D7E90623FDF7F1FD0346BB
:1025F4000C461A460D4BA3FB02135B09642101FB35
:1026040003F3D31A1B013233084AA2FB03135B09F9
:1026140003F00F032B443A69936000BF4437BD466F
:10262400BDE8F08F00100140001401401F85EB51FC
:10263400DFF834D00D480E490E4A002302E0D45886
:10264400C4500433C4188C42F9D30B4A0B4C0023F6
:1026540001E013600432A242FBD3FEF7D9F900F083
:1026640011F8FDF73DFF70470080012000000020B5
:102674000C000020502700080C000020B8000020A7
:10268400FEE7000070B50D4E0D4CA41BA4100025F0
:10269400A54209D10B4E0C4C00F020F8A41BA41049
:1026A4000025A54205D170BD56F82530984701355F
:1026B400EEE756F8253098470135F2E74827000839
:1026C40048270008482700084C270008024403460E
:1026D400934200D1704703F8011BF9E7F8B500BF36
:1026E400F8BC08BC9E467047F8B500BFF8BC08BCEF
:0426F4009E46704747
:1026F80053544152540D0A000000000054455354ED
:102708000D0A000000000000507573680D0A0000F3
:1027180000000000313233343536373839000000D4
:102728000000000000000000010203040607080979
:0827380000000000010203048F
:08274000C4DAFF7F0100000074
:04274800B9010008CB
:04274C0095010008EB
:0C2750000024F400100000000100000054
:040000050800263594
:00000001FF
